S0150000544553542070726F6772616D652E7372656352
S11300000C942A000C9447000C9447000C9447006D
S11300100C9447000C9447000C9447000C94470040
S11300200C9447000C9447000C9447000C94470030
S11300300C9447000C9447000C9447000C94470020
S11300400C9447000C9447000C9447000C94470010
S11300500C94470011241FBECFE5D8E0DEBFCDBF0E
S113006010E0A0E6B0E0EEEBF6E002C005900D92E1
S1130070AE36B107D9F710E0AEE6B0E001C01D928C
S1130080AE36B107E1F70E9476010C945D030C943F
S11300900000809162000E940601809162000E942B
S11300A00C01809161000E940601809161000E9410
S11300B00C01809160000E947E000895C0E0D8E0A9
S11300C00CC0809162006C2F0E94560183E294EF71
S11300D00197F1F700C00000CF5FCA3090F3CD2F35
S11300E0809162006C2F0E94560183E294EF019785
S11300F0F1F700C00000C15099F7EFCF8F710E9453
S11301007D010895CF93C82FCF7185FD0DC08C2F2D
S11301100E94C8028823A9F08C2F0E94C80291E093
S1130120813091F090E010C08C2F0E94C802813081
S113013051F08C2F0E94C80291E0882329F090E0AE
S113014003C090E001C090E0892FCF910895CF9330
S1130150282F2370982F96959695977085FF0DC03C
S1130160C92FCC0FCC0FC22BC062CF7B8C2F0E9427
S11301707D018C2F0E9403020CC0C92FC770CC0FC5
S1130180CC0FC22BC0668C2F0E947D018C2F0E9445
S11301900302CF910895282F2370982F9695969552
S11301A0977085FF08C0990F990F292B822F8066BD
S11301B00E94030208959770990F990F292B822F9B
S11301C080620E9403020895282F2370982F969529
S11301D09695977085FF08C0990F990F292B822F48
S11301E080620E94030208959770990F990F292B3A
S11301F0822F80660E94030208958F7180620E949C
S1130200890208956FEF0E94040308958695837010
S11302106FEF0E9404030895CF93982F96959695B7
S113022096959370C82FC295C695C77080FD0CC073
S1130230CC0FCC0FC92BC062CF7B8C2F0E947D01C9
S11302408C2F0E9403020BC0CC0FCC0F9370C92BD0
S1130250C0668C2F0E947D018C2F0E940302CF91D7
S11302600895CF93982F9695969596959370C82F49
S1130270C295C695C77080FD0BC0CC0FCC0FC92B9F
S1130280C0668C2F0E947D018C2F0E9403020CC03B
S1130290CC0FCC0F9370C92BC062CF7B8C2F0E94E4
S11302A07D018C2F0E940302CF910895282F26955B
S11302B0237080FD0DC0862F6AE00E945103E3E69F
S11302C0F0E0E90FF11D822F60810E94150308956B
S11302D0862F6AE00E945103E3E6F0E0E90FF11D86
S11302E060816095822F0E94150308950E94490041
S11302F00E945E0080E090E00895982F9695969570
S11303009770282F237030E02230310509F441C062
S11303102330310509F45AC021303105E9F085FF55
S11303200DC04AB321E030E0B90102C0660F771F67
S11303309A95E2F7CB01842B8ABB08954AB321E056
S113034030E0B90102C0660F771F9A95E2F7CB013E
S1130350809584238ABB089585FF0DC047B321E0AF
S113036030E0B90102C0660F771F9A95E2F7CB011E
S1130370842B87BB089547B321E030E0B90102C064
S1130380660F771F9A95E2F7CB018095842387BB8C
S1130390089585FF0DC044B321E030E0B90102C0E7
S11303A0660F771F9A95E2F7CB01842B84BB0895DF
S11303B044B321E030E0B90102C0660F771F9A957B
S11303C0E2F7CB018095842384BB089585FF0DC09B
S11303D041B321E030E0B90102C0660F771F9A955E
S11303E0E2F7CB01842B81BB089541B321E030E0D7
S11303F0B90102C0660F771F9A95E2F7CB01809589
S1130400842381BB0895982F969596959770282FED
S1130410237030E02230310509F441C02330310526
S113042009F45AC021303105E9F086FF0DC04BB301
S113043021E030E0B90102C0660F771F9A95E2F718
S1130440CB01842B8BBB08954BB321E030E0B90181
S113045002C0660F771F9A95E2F7CB01809584233B
S11304608BBB089586FF0DC048B321E030E0B9018D
S113047002C0660F771F9A95E2F7CB01842B88BBE5
S1130480089548B321E030E0B90102C0660F771F38
S11304909A95E2F7CB018095842388BB089586FF63
S11304A00DC045B321E030E0B90102C0660F771FEB
S11304B09A95E2F7CB01842B85BB089545B321E0DF
S11304C030E0B90102C0660F771F9A95E2F7CB01BD
S11304D08095842385BB089586FF0DC042B321E037
S11304E030E0B90102C0660F771F9A95E2F7CB019D
S11304F0842B82BB089542B321E030E0B90102C0ED
S1130500660F771F9A95E2F7CB018095842382BB0F
S11305100895482F469546954770837090E0823041
S11305209105F1F08330910539F18130910561F045
S11305305BB321E030E0C90102C0880F991F4A95DE
S1130540E2F785278BBB089558B321E030E0C90159
S113055002C0880F991F4A95E2F7852788BB089542
S113056055B321E030E0C90102C0880F991F4A95B4
S1130570E2F7852785BB089552B321E030E0C90135
S113058002C0880F991F4A95E2F7852782BB089518
S1130590982F9695969597708370282F30E0223087
S11305A03105E1F02330310521F12130310559F0D5
S11305B029B330E0A90102C0559547959A95E2F711
S11305C0CA018170089526B330E0A90102C055958F
S11305D047959A95E2F7CA018170089523B330E0F4
S11305E0A90102C0559547959A95E2F7CA01817011
S11305F0089520B330E0A90102C0559547959A9516
S1130600E2F7CA0181700895813049F0813028F001
S1130610823039F0833041F406C06ABB089567BB69
S1130620089564BB089561BB0895813049F0813019
S113063028F0823039F0833041F406C06BBB089552
S113064068BB089568BB089562BB0895813049F082
S1130650813028F0823039F0833041F406C099B3F8
S113066005C096B303C093B301C090B3892F089516
S1130670813059F0813028F0823059F0833081F490
S11306800CC08BB380958BBB089588B3809588BBD1
S1130690089585B3809585BB089582B3809582BB08
S11306A00895991B79E004C0991F961708F0961BCA
S11106B0881F7A95C9F780950895F894FFCFB6
S11106BE02E8EE3F065B4F666D7D077F6F001E
S9030000FC
